{
  "_format": "hh-sol-artifact-1",
  "contractName": "CrowdFunding",
  "sourceName": "contracts/CrowdFunding.sol",
  "abi": [
    {
      "inputs": [],
      "stateMutability": "nonpayable",
      "type": "constructor"
    },
    {
      "anonymous": false,
      "inputs": [
        {
          "indexed": true,
          "internalType": "uint256",
          "name": "campaignId",
          "type": "uint256"
        },
        {
          "indexed": false,
          "internalType": "address",
          "name": "campaignOwner",
          "type": "address"
        },
        {
          "indexed": false,
          "internalType": "uint256",
          "name": "deadline",
          "type": "uint256"
        },
        {
          "indexed": false,
          "internalType": "string",
          "name": "imageUrl",
          "type": "string"
        }
      ],
      "name": "CampaignCreated",
      "type": "event"
    },
    {
      "anonymous": false,
      "inputs": [
        {
          "indexed": true,
          "internalType": "uint256",
          "name": "campaignId",
          "type": "uint256"
        },
        {
          "indexed": false,
          "internalType": "address",
          "name": "campaignOwner",
          "type": "address"
        },
        {
          "indexed": false,
          "internalType": "uint256",
          "name": "deadline",
          "type": "uint256"
        },
        {
          "indexed": false,
          "internalType": "string",
          "name": "imageUrl",
          "type": "string"
        }
      ],
      "name": "CampaignUpdated",
      "type": "event"
    },
    {
      "inputs": [
        {
          "internalType": "uint256",
          "name": "",
          "type": "uint256"
        }
      ],
      "name": "campaigns",
      "outputs": [
        {
          "internalType": "uint256",
          "name": "id",
          "type": "uint256"
        },
        {
          "internalType": "string",
          "name": "name",
          "type": "string"
        },
        {
          "internalType": "string",
          "name": "image",
          "type": "string"
        },
        {
          "internalType": "address",
          "name": "owner",
          "type": "address"
        },
        {
          "internalType": "string",
          "name": "description",
          "type": "string"
        },
        {
          "internalType": "uint256",
          "name": "deadline",
          "type": "uint256"
        },
        {
          "internalType": "uint256",
          "name": "donatedAmount",
          "type": "uint256"
        },
        {
          "internalType": "uint256",
          "name": "amount",
          "type": "uint256"
        }
      ],
      "stateMutability": "view",
      "type": "function"
    },
    {
      "inputs": [
        {
          "internalType": "string",
          "name": "_campaignName",
          "type": "string"
        },
        {
          "internalType": "string",
          "name": "_imageUrl",
          "type": "string"
        },
        {
          "internalType": "address",
          "name": "_ownerAddress",
          "type": "address"
        },
        {
          "internalType": "string",
          "name": "_description",
          "type": "string"
        },
        {
          "internalType": "uint256",
          "name": "_deadline",
          "type": "uint256"
        },
        {
          "internalType": "uint256",
          "name": "_amount",
          "type": "uint256"
        }
      ],
      "name": "createCampaigns",
      "outputs": [],
      "stateMutability": "nonpayable",
      "type": "function"
    },
    {
      "inputs": [
        {
          "internalType": "uint256",
          "name": "_campaignId",
          "type": "uint256"
        }
      ],
      "name": "deleteCampaigns",
      "outputs": [],
      "stateMutability": "nonpayable",
      "type": "function"
    },
    {
      "inputs": [
        {
          "internalType": "uint256",
          "name": "_campaignId",
          "type": "uint256"
        }
      ],
      "name": "donateToCampaign",
      "outputs": [],
      "stateMutability": "payable",
      "type": "function"
    },
    {
      "inputs": [
        {
          "internalType": "uint256",
          "name": "_campaignId",
          "type": "uint256"
        }
      ],
      "name": "getCampaignDetails",
      "outputs": [
        {
          "components": [
            {
              "internalType": "uint256",
              "name": "id",
              "type": "uint256"
            },
            {
              "internalType": "string",
              "name": "name",
              "type": "string"
            },
            {
              "internalType": "string",
              "name": "image",
              "type": "string"
            },
            {
              "internalType": "address",
              "name": "owner",
              "type": "address"
            },
            {
              "internalType": "string",
              "name": "description",
              "type": "string"
            },
            {
              "internalType": "uint256",
              "name": "deadline",
              "type": "uint256"
            },
            {
              "internalType": "uint256",
              "name": "donatedAmount",
              "type": "uint256"
            },
            {
              "internalType": "uint256",
              "name": "amount",
              "type": "uint256"
            },
            {
              "internalType": "address[]",
              "name": "donors",
              "type": "address[]"
            }
          ],
          "internalType": "struct CrowdFunding.Campaign",
          "name": "",
          "type": "tuple"
        }
      ],
      "stateMutability": "view",
      "type": "function"
    },
    {
      "inputs": [],
      "name": "getCampaigns",
      "outputs": [
        {
          "components": [
            {
              "internalType": "uint256",
              "name": "id",
              "type": "uint256"
            },
            {
              "internalType": "string",
              "name": "name",
              "type": "string"
            },
            {
              "internalType": "string",
              "name": "image",
              "type": "string"
            },
            {
              "internalType": "address",
              "name": "owner",
              "type": "address"
            },
            {
              "internalType": "string",
              "name": "description",
              "type": "string"
            },
            {
              "internalType": "uint256",
              "name": "deadline",
              "type": "uint256"
            },
            {
              "internalType": "uint256",
              "name": "donatedAmount",
              "type": "uint256"
            },
            {
              "internalType": "uint256",
              "name": "amount",
              "type": "uint256"
            },
            {
              "internalType": "address[]",
              "name": "donors",
              "type": "address[]"
            }
          ],
          "internalType": "struct CrowdFunding.Campaign[]",
          "name": "",
          "type": "tuple[]"
        }
      ],
      "stateMutability": "view",
      "type": "function"
    },
    {
      "inputs": [
        {
          "internalType": "uint256",
          "name": "_campaignId",
          "type": "uint256"
        }
      ],
      "name": "getDonors",
      "outputs": [
        {
          "internalType": "address[]",
          "name": "",
          "type": "address[]"
        }
      ],
      "stateMutability": "view",
      "type": "function"
    },
    {
      "inputs": [
        {
          "internalType": "enum CrowdFunding.FieldTypes",
          "name": "_field",
          "type": "uint8"
        },
        {
          "internalType": "uint256",
          "name": "_campaignId",
          "type": "uint256"
        },
        {
          "internalType": "string",
          "name": "_value",
          "type": "string"
        }
      ],
      "name": "updateCampaigns",
      "outputs": [],
      "stateMutability": "nonpayable",
      "type": "function"
    }
  ],
  "bytecode": "0x6080604052600160005534801561001557600080fd5b5060006040518061012001604052806103e881526020016040518060400160405280600d81526020017f546573742043616d706169676e0000000000000000000000000000000000000081525081526020016040518060400160405280601f81526020017f68747470733a2f2f7669612e706c616365686f6c6465722e636f6d2f3135300081525081526020013373ffffffffffffffffffffffffffffffffffffffff1681526020016040518060400160405280601781526020017f54686973206973206120746573742063616d706169676e000000000000000000815250815260200162278d00426101089190610363565b81526020016000815260200160648152602001600067ffffffffffffffff81111561013657610135610397565b5b6040519080825280602002602001820160405280156101645781602001602082028036833780820191505090505b50815250905080600160006103e8815260200190815260200160002060008201518160000155602082015181600101908161019f91906105dd565b5060408201518160020190816101b591906105dd565b5060608201518160030160006101000a81548173ffffffffffffffffffffffffffffffffffffffff021916908373ffffffffffffffffffffffffffffffffffffffff160217905550608082015181600401908161021291906105dd565b5060a0820151816005015560c0820151816006015560e0820151816007015561010082015181600801908051906020019061024e929190610283565b5090505060026103e89080600181540180825580915050600190039060005260206000200160009091909190915055506106af565b8280548282559060005260206000209081019282156102fc579160200282015b828111156102fb5782518260006101000a81548173ffffffffffffffffffffffffffffffffffffffff021916908373ffffffffffffffffffffffffffffffffffffffff160217905550916020019190600101906102a3565b5b509050610309919061030d565b5090565b5b8082111561032657600081600090555060010161030e565b5090565b6000819050919050565b7f4e487b7100000000000000000000000000000000000000000000000000000000600052601160045260246000fd5b600061036e8261032a565b91506103798361032a565b925082820190508082111561039157610390610334565b5b92915050565b7f4e487b7100000000000000000000000000000000000000000000000000000000600052604160045260246000fd5b600081519050919050565b7f4e487b7100000000000000000000000000000000000000000000000000000000600052602260045260246000fd5b6000600282049050600182168061041857607f821691505b60208210810361042b5761042a6103d1565b5b50919050565b60008190508160005260206000209050919050565b60006020601f8301049050919050565b600082821b905092915050565b6000600883026104937fffffffffffffffffffffffffffffffffffffffffffffffffffffffffffffffff82610456565b61049d8683610456565b95508019841693508086168417925050509392505050565b6000819050919050565b60006104da6104d56104d08461032a565b6104b5565b61032a565b9050919050565b6000819050919050565b6104f4836104bf565b610508610500826104e1565b848454610463565b825550505050565b600090565b61051d610510565b6105288184846104eb565b505050565b5b8181101561054c57610541600082610515565b60018101905061052e565b5050565b601f8211156105915761056281610431565b61056b84610446565b8101602085101561057a578190505b61058e61058685610446565b83018261052d565b50505b505050565b600082821c905092915050565b60006105b460001984600802610596565b1980831691505092915050565b60006105cd83836105a3565b9150826002028217905092915050565b6105e6826103c6565b67ffffffffffffffff8111156105ff576105fe610397565b5b6106098254610400565b610614828285610550565b600060209050601f8311600181146106475760008415610635578287015190505b61063f85826105c1565b8655506106a7565b601f19841661065586610431565b60005b8281101561067d57848901518255600182019150602085019450602081019050610658565b8683101561069a5784890151610696601f8916826105a3565b8355505b6001600288020188555050505b505050505050565b6129e5806106be6000396000f3fe60806040526004361061007b5760003560e01c8063a6b036331161004e578063a6b0363314610146578063d993de6214610171578063e0946807146101ae578063e962393b146101d75761007b565b8063141961bc1461008057806329516511146100c457806342a4fda814610101578063608045dc1461011d575b600080fd5b34801561008c57600080fd5b506100a760048036038101906100a29190611827565b610200565b6040516100bb989796959493929190611934565b60405180910390f35b3480156100d057600080fd5b506100eb60048036038101906100e69190611827565b610400565b6040516100f89190611a85565b60405180910390f35b61011b60048036038101906101169190611827565b61073c565b005b34801561012957600080fd5b50610144600480360381019061013f9190611c08565b610875565b005b34801561015257600080fd5b5061015b610a7e565b6040516101689190611f4d565b60405180910390f35b34801561017d57600080fd5b5061019860048036038101906101939190611827565b610e72565b6040516101a59190612049565b60405180910390f35b3480156101ba57600080fd5b506101d560048036038101906101d09190611827565b6111bd565b005b3480156101e357600080fd5b506101fe60048036038101906101f99190612090565b611420565b005b60016020528060005260406000206000915090508060000154908060010180546102299061212e565b80601f01602080910402602001604051908101604052809291908181526020018280546102559061212e565b80156102a25780601f10610277576101008083540402835291602001916102a2565b820191906000526020600020905b81548152906001019060200180831161028557829003601f168201915b5050505050908060020180546102b79061212e565b80601f01602080910402602001604051908101604052809291908181526020018280546102e39061212e565b80156103305780601f1061030557610100808354040283529160200191610330565b820191906000526020600020905b81548152906001019060200180831161031357829003601f168201915b5050505050908060030160009054906101000a900473ffffffffffffffffffffffffffffffffffffffff169080600401805461036b9061212e565b80601f01602080910402602001604051908101604052809291908181526020018280546103979061212e565b80156103e45780601f106103b9576101008083540402835291602001916103e4565b820191906000526020600020905b8154815290600101906020018083116103c757829003601f168201915b5050505050908060050154908060060154908060070154905088565b6060600060016000848152602001908152602001600020604051806101200160405290816000820154815260200160018201805461043d9061212e565b80601f01602080910402602001604051908101604052809291908181526020018280546104699061212e565b80156104b65780601f1061048b576101008083540402835291602001916104b6565b820191906000526020600020905b81548152906001019060200180831161049957829003601f168201915b505050505081526020016002820180546104cf9061212e565b80601f01602080910402602001604051908101604052809291908181526020018280546104fb9061212e565b80156105485780601f1061051d57610100808354040283529160200191610548565b820191906000526020600020905b81548152906001019060200180831161052b57829003601f168201915b505050505081526020016003820160009054906101000a900473ffffffffffffffffffffffffffffffffffffffff1673ffffffffffffffffffffffffffffffffffffffff1673ffffffffffffffffffffffffffffffffffffffff1681526020016004820180546105b79061212e565b80601f01602080910402602001604051908101604052809291908181526020018280546105e39061212e565b80156106305780601f1061060557610100808354040283529160200191610630565b820191906000526020600020905b81548152906001019060200180831161061357829003601f168201915b50505050508152602001600582015481526020016006820154815260200160078201548152602001600882018054806020026020016040519081016040528092919081815260200182805480156106dc57602002820191906000526020600020905b8160009054906101000a900473ffffffffffffffffffffffffffffffffffffffff1673ffffffffffffffffffffffffffffffffffffffff1681526020019060010190808311610692575b5050505050815250509050600081600001510361072e576040517f08c379a0000000000000000000000000000000000000000000000000000000008152600401610725906121ab565b60405180910390fd5b806101000151915050919050565b806000600160008381526020019081526020016000206000015403610796576040517f08c379a000000000000000000000000000000000000000000000000000000000815260040161078d90612217565b60405180910390fd5b6000600160008481526020019081526020016000209050600034116107f0576040517f08c379a00000000000000000000000000000000000000000000000000000000081526004016107e7906122a9565b60405180910390fd5b3481600601600082825461080491906122f8565b9250508190555080600801339080600181540180825580915050600190039060005260206000200160009091909190916101000a81548173ffffffffffffffffffffffffffffffffffffffff021916908373ffffffffffffffffffffffffffffffffffffffff160217905550505050565b6000600160008054815260200190815260200160002090506000548160000181905550868160010190816108a991906124d8565b50858160020190816108bb91906124d8565b50848160030160006101000a81548173ffffffffffffffffffffffffffffffffffffffff021916908373ffffffffffffffffffffffffffffffffffffffff1602179055508381600401908161091091906124d8565b50828160050181905550818160070181905550806001600080548152602001908152602001600020600082015481600001556001820181600101908161095691906125c0565b506002820181600201908161096b91906125c0565b506003820160009054906101000a900473ffffffffffffffffffffffffffffffffffffffff168160030160006101000a81548173ffffffffffffffffffffffffffffffffffffffff021916908373ffffffffffffffffffffffffffffffffffffffff160217905550600482018160040190816109e791906125c0565b506005820154816005015560068201548160060155600782015481600701556008820181600801908054610a1c9291906116ab565b509050506000547fa0b75b3d48f1d411faf8eb6b3a6985271fc12369efb160c320304fbcfdc3f3b3868589604051610a56939291906126a8565b60405180910390a2600080815480929190610a70906126e6565b919050555050505050505050565b6060600060028054905067ffffffffffffffff811115610aa157610aa0611ab1565b5b604051908082528060200260200182016040528015610ada57816020015b610ac76116fd565b815260200190600190039081610abf5790505b50905060005b600280549050811015610e6a57600060028281548110610b0357610b0261272e565b5b906000526020600020015490506000600160008381526020019081526020016000206040518061012001604052908160008201548152602001600182018054610b4b9061212e565b80601f0160208091040260200160405190810160405280929190818152602001828054610b779061212e565b8015610bc45780601f10610b9957610100808354040283529160200191610bc4565b820191906000526020600020905b815481529060010190602001808311610ba757829003601f168201915b50505050508152602001600282018054610bdd9061212e565b80601f0160208091040260200160405190810160405280929190818152602001828054610c099061212e565b8015610c565780601f10610c2b57610100808354040283529160200191610c56565b820191906000526020600020905b815481529060010190602001808311610c3957829003601f168201915b505050505081526020016003820160009054906101000a900473ffffffffffffffffffffffffffffffffffffffff1673ffffffffffffffffffffffffffffffffffffffff1673ffffffffffffffffffffffffffffffffffffffff168152602001600482018054610cc59061212e565b80601f0160208091040260200160405190810160405280929190818152602001828054610cf19061212e565b8015610d3e5780601f10610d1357610100808354040283529160200191610d3e565b820191906000526020600020905b815481529060010190602001808311610d2157829003601f168201915b5050505050815260200160058201548152602001600682015481526020016007820154815260200160088201805480602002602001604051908101604052809291908181526020018280548015610dea57602002820191906000526020600020905b8160009054906101000a900473ffffffffffffffffffffffffffffffffffffffff1673ffffffffffffffffffffffffffffffffffffffff1681526020019060010190808311610da0575b50505050508152505090506000816000015103610e3c576040517f08c379a0000000000000000000000000000000000000000000000000000000008152600401610e33906121ab565b60405180910390fd5b80848481518110610e5057610e4f61272e565b5b602002602001018190525050508080600101915050610ae0565b508091505090565b610e7a6116fd565b816000600160008381526020019081526020016000206000015403610ed4576040517f08c379a0000000000000000000000000000000000000000000000000000000008152600401610ecb90612217565b60405180910390fd5b600160008481526020019081526020016000206040518061012001604052908160008201548152602001600182018054610f0d9061212e565b80601f0160208091040260200160405190810160405280929190818152602001828054610f399061212e565b8015610f865780601f10610f5b57610100808354040283529160200191610f86565b820191906000526020600020905b815481529060010190602001808311610f6957829003601f168201915b50505050508152602001600282018054610f9f9061212e565b80601f0160208091040260200160405190810160405280929190818152602001828054610fcb9061212e565b80156110185780601f10610fed57610100808354040283529160200191611018565b820191906000526020600020905b815481529060010190602001808311610ffb57829003601f168201915b505050505081526020016003820160009054906101000a900473ffffffffffffffffffffffffffffffffffffffff1673ffffffffffffffffffffffffffffffffffffffff1673ffffffffffffffffffffffffffffffffffffffff1681526020016004820180546110879061212e565b80601f01602080910402602001604051908101604052809291908181526020018280546110b39061212e565b80156111005780601f106110d557610100808354040283529160200191611100565b820191906000526020600020905b8154815290600101906020018083116110e357829003601f168201915b50505050508152602001600582015481526020016006820154815260200160078201548152602001600882018054806020026020016040519081016040528092919081815260200182805480156111ac57602002820191906000526020600020905b8160009054906101000a900473ffffffffffffffffffffffffffffffffffffffff1673ffffffffffffffffffffffffffffffffffffffff1681526020019060010190808311611162575b505050505081525050915050919050565b806000600160008381526020019081526020016000206000015403611217576040517f08c379a000000000000000000000000000000000000000000000000000000000815260040161120e90612217565b60405180910390fd5b813373ffffffffffffffffffffffffffffffffffffffff166001600083815260200190815260200160002060030160009054906101000a900473ffffffffffffffffffffffffffffffffffffffff1673ffffffffffffffffffffffffffffffffffffffff16146112bc576040517f08c379a00000000000000000000000000000000000000000000000000000000081526004016112b3906127cf565b60405180910390fd5b600160008481526020019081526020016000206000808201600090556001820160006112e8919061175f565b6002820160006112f8919061175f565b6003820160006101000a81549073ffffffffffffffffffffffffffffffffffffffff021916905560048201600061132f919061175f565b600582016000905560068201600090556007820160009055600882016000611357919061179f565b505060005b60028054905081101561141a57836002828154811061137e5761137d61272e565b5b90600052602060002001540361140d57600260016002805490506113a291906127ef565b815481106113b3576113b261272e565b5b9060005260206000200154600282815481106113d2576113d161272e565b5b906000526020600020018190555060028054806113f2576113f1612823565b5b6001900381819060005260206000200160009055905561141a565b808060010191505061135c565b50505050565b81600060016000838152602001908152602001600020600001540361147a576040517f08c379a000000000000000000000000000000000000000000000000000000000815260040161147190612217565b60405180910390fd5b823373ffffffffffffffffffffffffffffffffffffffff166001600083815260200190815260200160002060030160009054906101000a900473ffffffffffffffffffffffffffffffffffffffff1673ffffffffffffffffffffffffffffffffffffffff161461151f576040517f08c379a0000000000000000000000000000000000000000000000000000000008152600401611516906127cf565b60405180910390fd5b60006001600086815260200190815260200160002090506000600481111561154a57611549612852565b5b86600481111561155d5761155c612852565b5b03611579578381600101908161157391906124d8565b5061163c565b6001600481111561158d5761158c612852565b5b8660048111156115a05761159f612852565b5b036115bc57838160040190816115b691906124d8565b5061163b565b600260048111156115d0576115cf612852565b5b8660048111156115e3576115e2612852565b5b036115ff57838160020190816115f991906124d8565b5061163a565b6040517f08c379a0000000000000000000000000000000000000000000000000000000008152600401611631906128cd565b60405180910390fd5b5b5b847fd34588de6973d7003f5ae4f9b4189c73710ccbadeaedb08be77d3810fe0e44418260030160009054906101000a900473ffffffffffffffffffffffffffffffffffffffff1683600501548460020160405161169b93929190612971565b60405180910390a2505050505050565b8280548282559060005260206000209081019282156116ec5760005260206000209182015b828111156116eb5782548255916001019190600101906116d0565b5b5090506116f991906117c0565b5090565b604051806101200160405280600081526020016060815260200160608152602001600073ffffffffffffffffffffffffffffffffffffffff16815260200160608152602001600081526020016000815260200160008152602001606081525090565b50805461176b9061212e565b6000825580601f1061177d575061179c565b601f01602090049060005260206000209081019061179b91906117c0565b5b50565b50805460008255906000526020600020908101906117bd91906117c0565b50565b5b808211156117d95760008160009055506001016117c1565b5090565b6000604051905090565b600080fd5b600080fd5b6000819050919050565b611804816117f1565b811461180f57600080fd5b50565b600081359050611821816117fb565b92915050565b60006020828403121561183d5761183c6117e7565b5b600061184b84828501611812565b91505092915050565b61185d816117f1565b82525050565b600081519050919050565b600082825260208201905092915050565b60005b8381101561189d578082015181840152602081019050611882565b60008484015250505050565b6000601f19601f8301169050919050565b60006118c582611863565b6118cf818561186e565b93506118df81856020860161187f565b6118e8816118a9565b840191505092915050565b600073ffffffffffffffffffffffffffffffffffffffff82169050919050565b600061191e826118f3565b9050919050565b61192e81611913565b82525050565b60006101008201905061194a600083018b611854565b818103602083015261195c818a6118ba565b9050818103604083015261197081896118ba565b905061197f6060830188611925565b818103608083015261199181876118ba565b90506119a060a0830186611854565b6119ad60c0830185611854565b6119ba60e0830184611854565b9998505050505050505050565b600081519050919050565b600082825260208201905092915050565b6000819050602082019050919050565b6119fc81611913565b82525050565b6000611a0e83836119f3565b60208301905092915050565b6000602082019050919050565b6000611a32826119c7565b611a3c81856119d2565b9350611a47836119e3565b8060005b83811015611a78578151611a5f8882611a02565b9750611a6a83611a1a565b925050600181019050611a4b565b5085935050505092915050565b60006020820190508181036000830152611a9f8184611a27565b905092915050565b600080fd5b600080fd5b7f4e487b7100000000000000000000000000000000000000000000000000000000600052604160045260246000fd5b611ae9826118a9565b810181811067ffffffffffffffff82111715611b0857611b07611ab1565b5b80604052505050565b6000611b1b6117dd565b9050611b278282611ae0565b919050565b600067ffffffffffffffff821115611b4757611b46611ab1565b5b611b50826118a9565b9050602081019050919050565b82818337600083830152505050565b6000611b7f611b7a84611b2c565b611b11565b905082815260208101848484011115611b9b57611b9a611aac565b5b611ba6848285611b5d565b509392505050565b600082601f830112611bc357611bc2611aa7565b5b8135611bd3848260208601611b6c565b91505092915050565b611be581611913565b8114611bf057600080fd5b50565b600081359050611c0281611bdc565b92915050565b60008060008060008060c08789031215611c2557611c246117e7565b5b600087013567ffffffffffffffff811115611c4357611c426117ec565b5b611c4f89828a01611bae565b965050602087013567ffffffffffffffff811115611c7057611c6f6117ec565b5b611c7c89828a01611bae565b9550506040611c8d89828a01611bf3565b945050606087013567ffffffffffffffff811115611cae57611cad6117ec565b5b611cba89828a01611bae565b9350506080611ccb89828a01611812565b92505060a0611cdc89828a01611812565b9150509295509295509295565b600081519050919050565b600082825260208201905092915050565b6000819050602082019050919050565b611d1e816117f1565b82525050565b600082825260208201905092915050565b6000611d4082611863565b611d4a8185611d24565b9350611d5a81856020860161187f565b611d63816118a9565b840191505092915050565b600082825260208201905092915050565b6000611d8a826119c7565b611d948185611d6e565b9350611d9f836119e3565b8060005b83811015611dd0578151611db78882611a02565b9750611dc283611a1a565b925050600181019050611da3565b5085935050505092915050565b600061012083016000830151611df66000860182611d15565b5060208301518482036020860152611e0e8282611d35565b91505060408301518482036040860152611e288282611d35565b9150506060830151611e3d60608601826119f3565b5060808301518482036080860152611e558282611d35565b91505060a0830151611e6a60a0860182611d15565b5060c0830151611e7d60c0860182611d15565b5060e0830151611e9060e0860182611d15565b50610100830151848203610100860152611eaa8282611d7f565b9150508091505092915050565b6000611ec38383611ddd565b905092915050565b6000602082019050919050565b6000611ee382611ce9565b611eed8185611cf4565b935083602082028501611eff85611d05565b8060005b85811015611f3b5784840389528151611f1c8582611eb7565b9450611f2783611ecb565b925060208a01995050600181019050611f03565b50829750879550505050505092915050565b60006020820190508181036000830152611f678184611ed8565b905092915050565b600061012083016000830151611f886000860182611d15565b5060208301518482036020860152611fa08282611d35565b91505060408301518482036040860152611fba8282611d35565b9150506060830151611fcf60608601826119f3565b5060808301518482036080860152611fe78282611d35565b91505060a0830151611ffc60a0860182611d15565b5060c083015161200f60c0860182611d15565b5060e083015161202260e0860182611d15565b5061010083015184820361010086015261203c8282611d7f565b9150508091505092915050565b600060208201905081810360008301526120638184611f6f565b905092915050565b6005811061207857600080fd5b50565b60008135905061208a8161206b565b92915050565b6000806000606084860312156120a9576120a86117e7565b5b60006120b78682870161207b565b93505060206120c886828701611812565b925050604084013567ffffffffffffffff8111156120e9576120e86117ec565b5b6120f586828701611bae565b9150509250925092565b7f4e487b7100000000000000000000000000000000000000000000000000000000600052602260045260246000fd5b6000600282049050600182168061214657607f821691505b602082108103612159576121586120ff565b5b50919050565b7f43616d706169676e204e6f7420466f756e640000000000000000000000000000600082015250565b600061219560128361186e565b91506121a08261215f565b602082019050919050565b600060208201905081810360008301526121c481612188565b9050919050565b7f43616d706169676e206e6f7420666f756e640000000000000000000000000000600082015250565b600061220160128361186e565b915061220c826121cb565b602082019050919050565b60006020820190508181036000830152612230816121f4565b9050919050565b7f446f6e6174656420616d6f756e742068617320746f206265206d6f726520746860008201527f616e203000000000000000000000000000000000000000000000000000000000602082015250565b600061229360248361186e565b915061229e82612237565b604082019050919050565b600060208201905081810360008301526122c281612286565b9050919050565b7f4e487b7100000000000000000000000000000000000000000000000000000000600052601160045260246000fd5b6000612303826117f1565b915061230e836117f1565b9250828201905080821115612326576123256122c9565b5b92915050565b60008190508160005260206000209050919050565b60006020601f8301049050919050565b600082821b905092915050565b60006008830261238e7fffffffffffffffffffffffffffffffffffffffffffffffffffffffffffffffff82612351565b6123988683612351565b95508019841693508086168417925050509392505050565b6000819050919050565b60006123d56123d06123cb846117f1565b6123b0565b6117f1565b9050919050565b6000819050919050565b6123ef836123ba565b6124036123fb826123dc565b84845461235e565b825550505050565b600090565b61241861240b565b6124238184846123e6565b505050565b5b818110156124475761243c600082612410565b600181019050612429565b5050565b601f82111561248c5761245d8161232c565b61246684612341565b81016020851015612475578190505b61248961248185612341565b830182612428565b50505b505050565b600082821c905092915050565b60006124af60001984600802612491565b1980831691505092915050565b60006124c8838361249e565b9150826002028217905092915050565b6124e182611863565b67ffffffffffffffff8111156124fa576124f9611ab1565b5b612504825461212e565b61250f82828561244b565b600060209050601f8311600181146125425760008415612530578287015190505b61253a85826124bc565b8655506125a2565b601f1984166125508661232c565b60005b8281101561257857848901518255600182019150602085019450602081019050612553565b868310156125955784890151612591601f89168261249e565b8355505b6001600288020188555050505b505050505050565b6000815490506125b98161212e565b9050919050565b8181036125ce5750506126a6565b6125d7826125aa565b67ffffffffffffffff8111156125f0576125ef611ab1565b5b6125fa825461212e565b61260582828561244b565b6000601f8311600181146126345760008415612622578287015490505b61262c85826124bc565b86555061269f565b601f1984166126428761232c565b965061264d8661232c565b60005b8281101561267557848901548255600182019150600185019450602081019050612650565b86831015612692578489015461268e601f89168261249e565b8355505b6001600288020188555050505b5050505050505b565b60006060820190506126bd6000830186611925565b6126ca6020830185611854565b81810360408301526126dc81846118ba565b9050949350505050565b60006126f1826117f1565b91507fffffffffffffffffffffffffffffffffffffffffffffffffffffffffffffffff8203612723576127226122c9565b5b600182019050919050565b7f4e487b7100000000000000000000000000000000000000000000000000000000600052603260045260246000fd5b7f4f6e6c792063616d706169676e206f776e65722063616e207570646174652f6460008201527f656c657465206869732063616d706169676e0000000000000000000000000000602082015250565b60006127b960328361186e565b91506127c48261275d565b604082019050919050565b600060208201905081810360008301526127e8816127ac565b9050919050565b60006127fa826117f1565b9150612805836117f1565b925082820390508181111561281d5761281c6122c9565b5b92915050565b7f4e487b7100000000000000000000000000000000000000000000000000000000600052603160045260246000fd5b7f4e487b7100000000000000000000000000000000000000000000000000000000600052602160045260246000fd5b7f496e76616c6964206669656c6420737065636966696564000000000000000000600082015250565b60006128b760178361186e565b91506128c282612881565b602082019050919050565b600060208201905081810360008301526128e6816128aa565b9050919050565b600081546128fa8161212e565b612904818661186e565b9450600182166000811461291f576001811461293557612968565b60ff198316865281151560200286019350612968565b61293e8561232c565b60005b8381101561296057815481890152600182019150602081019050612941565b808801955050505b50505092915050565b60006060820190506129866000830186611925565b6129936020830185611854565b81810360408301526129a581846128ed565b905094935050505056fea2646970667358221220e2dd7502bda96a111004f2e0f588a659fb6071e55a95c814b8e82008d935a6ca64736f6c634300081c0033",
  "linkReferences": {},
  "deployedLinkReferences": {}
}